:020000040800F2
:1000000000000220DD0E00082D0F00082D0F000853
:100010002D0F00082D0F00082D0F00080000000014
:100020000000000000000000000000002D0F00088C
:100030002D0F0008000000002D0F0008050D00081E
:100040002D0F00082D0F00082D0F00082D0F0008A0
:100050002D0F00082D0F00082D0F00082D0F000890
:100060002D0F00082D0F00082D0F00082D0F000880
:100070002D0F00082D0F00082D0F00082D0F000870
:100080002D0F00082D0F00082D0F000800000000A4
:100090000000000000000000000000002D0F00081C
:1000A0002D0F00082D0F00082D0F00082D0F000840
:1000B0002D0F00082D0F00082D0F00082D0F000830
:1000C0002D0F00082D0F00082D0F00082D0F000820
:1000D0002D0F00082D0F0008110D00080000000072
:1000E0002D0F00082D0F00082D0F00080000000044
:1000F0000000000000000000000000002D0F0008BC
:10010000000000002D0F00082D0F00082D0F000823
:1001100000000000000000000000000000000000DF
:100120002D0F00082D0F00082D0F00082D0F0008BF
:100130002D0F00080000000000000000000000007B
:100140000000000000000000000000002D0F00086B
:100150002D0F00082D0F00082D0F00082D0F00088F
:100160002D0F00082D0F0008000000000000000007
:10017000000000000000000000000000000000007F
:10018000000000002D0F000800000000000000002B
:080190002D0F00082D0F0008DF
:1001980010B5054C237833B9044B13B10448AFF3B9
:1001A80000800123237010BD100000200000000013
:1001B800780F000808B5034B1BB103490348AFF398
:1001C800008008BD0000000014000020780F00081F
:1001D800034613F8012B002AFBD1181A013870477F
:1001E80010B504460E4B18784FF47A73B3FBF0F34E
:1001F8000C4A1068B0FBF3F000F094F868B90F2CC3
:1002080001D901200AE0002221464FF0FF3000F01A
:1002180049F8034B5C60002000E0012010BD00BFDE
:10022800000000200C00002008B50B4B1A6842F4AF
:1002380000721A601A6842F480621A601A6842F4FE
:1002480080721A60032000F01BF80020FFF7C8FF37
:1002580000F0C2FD002008BD003C0240034A1168BE
:10026800034B1B780B441360704700BF3400002019
:1002780000000020014B1868704700BF34000020C0
:10028800074AD36823F4E0631B041B0C000200F444
:10029800E060184340F0BF6040F40030D060704721
:1002A80000ED00E030B4174BDB68C3F30223C3F161
:1002B8000704042C28BF04241D1D062D18D9033B50
:1002C8004FF0FF3505FA04F421EA0401994005FAD4
:1002D80003F322EA0303194300280BDB0901C9B21F
:1002E80000F1604000F5614080F8001330BC7047B1
:1002F8000023E5E700F00F000901C9B2024B1954C9
:10030800F4E700BF00ED00E014ED00E000F01F028C
:10031800400901239340024A42F82030704700BF49
:1003280000E100E00138B0F1807F0AD2064B586046
:10033800064AF02182F823100020986007221A60EC
:1003480070470120704700BF10E000E000ED00E0BA
:10035800704708B5FFF7FCFF08BD90F83530DBB2F1
:10036800022B03D08023436501207047052380F8C2
:1003780035300268136823F00103136000207047CA
:1003880000230F2B00F2C580F0B482B039E00422BC
:1003980000E00022B2403A4302345E4E46F8242080
:1003A8005D4A1468EA4302EA04064F6817F4803F7E
:1003B80001D045EA0406584C2660646802EA04063F
:1003C8004F6817F4003F01D045EA0406524C6660B6
:1003D800A46802EA04064F6817F4801F01D045EAB2
:1003E80004064D4CA660E46822404E6816F4001FCF
:1003F80001D045EA0402484CE26001330F2B00F2B9
:10040800858001229A400C6804EA0205AA42F4D1C8
:100418004C68022C01D0122C10D1DE08083650F896
:1004280026C003F00704A7000F24BC402CEA040CE4
:100438000C69BC4044EA0C0440F8264004685F009C
:100448000326BE40F64306EA040C4C6804F0030495
:10045800BC4044EA0C0404604C6804F1FF3CBCF165
:10046800010F03D9112C01D0122C10D1846806EA8F
:10047800040CCC68BC4044EA0C048460446824EA58
:1004880002024C68C4F300149C4014434460C268E0
:1004980016408A68BA403243C2604A6812F0805FE8
:1004A800ABD0002201921D4A546C44F48044546439
:1004B800526C02F480420192019A9C08A61C154ACB
:1004C80052F8267003F0030296000F22B24027EA82
:1004D8000207134A90423FF45CAF02F580629042F3
:1004E8000ED002F5806290420CD002F580629042F4
:1004F8000AD002F5806290423FF449AF072249E7EB
:10050800012247E7022245E7032243E702B0F0BC95
:100518007047704700380140003C014000380240F5
:1005280000000240014B1868704700BF0C00002013
:1005380008B5FFF7F7FF044B9B68C3F38223034A10
:10054800D35CD84008BD00BF00380240A00F0008A7
:1005580008B5FFF7E7FF044B9B68C3F34233034A30
:10056800D35CD84008BD00BF00380240A00F000887
:100578000268D36823F49073D3600268536923F048
:1005880001035361202380F83A30704790F83930DE
:10059800DBB2212B2AD18368B3F5805F16D0036ABA
:1005A8005A1C02621A7803685A60C38C013B9BB2DA
:1005B800C384EBB90268D36823F08003D360026870
:1005C800D36843F04003D36000207047036A1B8858
:1005D8000268C3F30803536003691BB9036A023353
:1005E8000362E2E7036A01330362DEE70220704731
:1005F800002070472DE9F843044601680A6922F48F
:100608004052C36813430B610168CA6822F416425A
:1006180022F00C0283680069034360690343E069C0
:1006280003431343CB6021684A6922F44072A369EB
:1006380013434B61E369B3F5004F60D02368B84AB0
:10064800934200F0148102F58062934200F00F811A
:10065800FFF76EFF00EB800000EB80006568AD00DF
:10066800B0FBF5F5AF4FA7FB05356D092E01FFF778
:100678005FFF00EB800000EB80006568AD00B0FB19
:10068800F5F9FFF755FF00EB800000EB8000656887
:10069800AD00B0FBF5F5A7FB05356D094FF0640813
:1006A80008FB15952D013235A7FB05356D0905F0B9
:1006B800F0053544FFF73CFF00EB800000EB8000BD
:1006C8006668B600B0FBF6F6FFF732FF00EB800075
:1006D80000EB800063689B00B0FBF3F0A7FB0030E1
:1006E800400908FB10684FEA081808F13208A7FB10
:1006F8000837C7F3431723682F449F600DE1236829
:10070800874A93425BD002F58062934257D0FFF745
:100718000FFF00EB800000EB800065686D00B0FB08
:10072800F5F5804FA7FB05356D092E01FFF700FF92
:1007380000EB800000EB800065686D00B0FBF5F908
:10074800FFF7F6FE00EB800000EB800065686D00A7
:10075800B0FBF5F5A7FB05356D094FF0640808FBFC
:100768001595ED003235A7FB05356D096D0005F4CB
:10077800F8753544FFF7DCFE00EB800000EB8000E5
:1007880066687600B0FBF6F6FFF7D2FE00EB800055
:1007980000EB800063685B00B0FBF3F3A7FB032367
:1007A8005B0908FB13684FEAC80808F13208A7FB81
:1007B8000837C7F3421723682F449F60ADE0FFF75F
:1007C800C7FE00EB800000EB800065686D00B0FBA1
:1007D800F5F5544FA7FB05356D092E01FFF7B8FE57
:1007E80000EB800000EB800065686D00B0FBF5F958
:1007F800FFF7AEFE00EB800000EB800065686D003F
:10080800B0FBF5F5A7FB05356D094FF0640808FB4B
:100818001595ED003235A7FB05356D096D0005F41A
:10082800F8753544FFF794FE00EB800000EB80007C
:1008380066687600B0FBF6F6FFF78AFE00EB8000EC
:1008480000EB800063685B00B0FBF3F3A7FB0323B6
:100858005B0908FB13684FEAC80808F13208A7FBD0
:100868000837C7F3421723682F449F6055E0FFF706
:100878006FFE00EB800000EB80006568AD00B0FB08
:10088800F5F5284FA7FB05356D092E01FFF760FE2A
:1008980000EB800000EB80006568AD00B0FBF5F967
:1008A800FFF756FE00EB800000EB80006568AD00A6
:1008B800B0FBF5F5A7FB05356D094FF0640808FB9B
:1008C80015952D013235A7FB05356D0905F0F005A5
:1008D8003544FFF73DFE00EB800000EB80006668C2
:1008E800B600B0FBF6F6FFF733FE00EB800000EB36
:1008F800800063689B00B0FBF3F0A7FB0030400961
:1009080008FB10684FEA081808F13208A7FB0837F7
:10091800C7F3431723682F449F60BDE8F88300BFDF
:10092800001001401F85EB512DE9F04105460F46A7
:1009380016469846069C2B681B6837EA03030CBFCB
:1009480001230023B3421DD1B4F1FF3FF3D02CB1F2
:10095800FFF790FCA0EB0800A042ECD92A68D36806
:1009680023F4D073D3602A68536923F001035361D9
:10097800202385F8393085F83A30002385F8383057
:10098800032000E00020BDE8F08158B310B504460C
:1009980090F839300BB3242384F839302268D368AF
:1009A80023F40053D3602046FFF724FE226813691E
:1009B80023F4904313612268536923F02A03536197
:1009C8002268D36843F40053D3600020E0632023F7
:1009D80084F8393084F83A3010BD80F8383000F0A7
:1009E80019FAD8E7012070472DE9F04182B01E4678
:1009F80090F83930DBB2202B55D104460D4690468D
:100A0800002955D0002A55D090F83830012B53D002
:100A1800012380F838300023C363212380F839305C
:100A2800FFF728FC0746A4F82480A4F8268010E0E5
:100A380000963B46002280212046FFF775FF0028DC
:100A48003CD12B882268C3F3080353602369C3B9D8
:100A58000235E38C9BB2B3B1E38C013B9BB2E384D8
:100A6800A368B3F5805FE3D000963B46002280215F
:100A78002046FFF759FF18BB2A7823685A600135CA
:100A8800E7E70135E5E700963B460022402120468E
:100A9800FFF74AFF0346A8B9202284F8392000222C
:100AA80084F8382000E00223184602B0BDE8F0813F
:100AB8000123F9E70123F7E70223F5E70323F3E727
:100AC8000323F1E70323EFE790F83A30DBB2202B5A
:100AD8001BD1E1B1EAB190F83830012B1BD081620B
:100AE8008285C2850023C363222280F83A2080F8D9
:100AF800383001684A6942F001024A610168CA68EF
:100B080042F49072CA60184670470220704701206C
:100B180070470120704702207047704708B5016888
:100B2800CB6823F04003CB60202380F83930FFF7EF
:100B3800F4FF002008BD08B590F83A30DBB2222B4C
:100B480040D18368B3F5805F0ED0036903BB0368A7
:100B58005A68836A591C81621A70C38D013B9BB223
:100B6800C385F3B100202EE0826A036943B90368A4
:100B78005B68C3F308031380836A02338362ECE77C
:100B880003685B68DBB21380836A01338362E4E73E
:100B980003685B68826A511C816203F07F031370EB
:100BA800DBE70268D36823F49073D3600268536963
:100BB80023F001035361202380F83A3000F0ACF8A9
:100BC800002000E0022008BD7047000010B5044670
:100BD80002681368D168526913F00F0005D113F049
:100BE800200F02D011F0200F53D1002867D012F047
:100BF800010202D111F4907F61D013F0010F06D0E9
:100C080011F4807F03D0E06B40F00100E06313F043
:100C1800040F04D01AB1E06B40F00200E06313F057
:100C2800020F04D01AB1E06B40F00400E06313F047
:100C3800080F04D01AB1E26B42F00802E263E26BDB
:100C4800002A48D013F0200F02D011F0200F24D131
:100C580023685B6903F04003E26B12F0080F00D1D0
:100C68003BB32046FFF784FC23685A6912F0400F13
:100C78001BD05A6922F040025A61636B8BB11A4A41
:100C88001A65606BFFF769FB28B3606B036D9847C3
:100C980021E02046FFF74FFF1DE02046FFF74BFFFE
:100CA800D6E72046FFF790FF15E02046FFF78CFFB8
:100CB80011E02046FFF788FF0023E3630BE013F001
:100CC800800F02D011F0800F06D113F0400F02D030
:100CD80011F0400F04D110BD2046FFF757FCFAE78A
:100CE8002046FFF71BFFF6E7F50C000808B5806BF8
:100CF8000023C385C384FFF767FF08BD08B5FFF766
:100D0800ADFAFFF726FB08BD08B50248FFF75EFFFE
:100D180008BD00BF380000200D4B1B780D2B06D0F6
:100D28000C494A68501C48600B498B54704710B5F1
:100D3800084B01221A705C68A2185A6006490D23F4
:100D48000B554FF0FF3392B2FFF74EFE10BD00BFB8
:100D5800780000202C0000207C000020FEE7000026
:100D680008B50948094B03604FF4E1334360002399
:100D78008360C36003610C2242618361FFF705FE53
:100D880000B908BDFFF7EAFF380000200044004022
:100D980010B5FFF749FAFFF7E3FF0B4B1C68204635
:100DA800FFF716FA4FF0FF3382B221460748FFF7E4
:100DB8001BFE04E0012206490448FFF785FE054BA7
:100DC8001B78012BF6D1FEE7080000203800002030
:100DD800780000202C00002008B50320FFF750FA07
:100DE8000B4A536A43F4E0235362002211466FF022
:100DF8000B00FFF757FA002211466FF00A00FFF7C1
:100E080051FA002211466FF00900FFF74BFA08BDAE
:100E180000ED00E030B589B000240194184B1A6C3D
:100E280042F400321A641A6C02F400320192019AF8
:100E380002941A6B42F001021A631B6B03F0010360
:100E48000293029B04230393022304930123059333
:100E58000694072307930B4D03A92846FFF790FA3A
:100E68000823039303A92846FFF78AFA2620FFF7E9
:100E78004DFA22460F212620FFF714FA09B030BD9B
:100E880000380240000002400F49D1F8883043F48E
:100E98007003C1F888300D4B1A6842F001021A60DD
:100EA800002098601A6822F0847222F480321A6056
:100EB800074A5A601A6822F480221A60D8604FF0F4
:100EC80000638B60704700BF00ED00E0003802400F
:100ED80010300024DFF834D0002103E00C4B5B58BD
:100EE800435004310B480C4B42189A42F6D30B4A34
:100EF80002E0002342F8043B094B9A42F9D3FFF77A
:100F0800C3FF00F011F8FFF743FF7047000002200D
:100F1800CC0F000800000020100000201000002066
:100F2800E0000020FEE7000070B50D4E0D4CA41B3C
:100F3800A4100025A54209D10B4E0C4C00F018F85E
:100F4800A41BA4100025A54205D170BD56F8253074
:100F580098470135EEE756F8253098470135F2E70E
:100F6800C40F0008C40F0008C40F0008C80F000809
:100F7800F8B500BFF8BC08BC9E467047F8B500BF7E
:080F8800F8BC08BC9E4670474E
:100F90000000000000000000010203040607080929
:100FA0000000000001020304546865206170706C49
:100FB00069636174696F6E206973207570210D0A11
:040FC000000000002D
:040FC400BD01000863
:040FC8009901000883
:100FCC000100000010000000A80F00080024F4002D
:0400000508000EDD04
:00000001FF
