:020000040800F2
:1000000000000220910B0008E10B0008E10B000842
:10001000E10B0008E10B0008E10B00080000000004
:10002000000000000000000000000000E10B0008DC
:10003000E10B000800000000E10B0008290A00089D
:10004000E10B0008E10B0008E10B0008E10B0008E0
:10005000E10B0008E10B0008E10B0008E10B0008D0
:10006000E10B0008E10B0008E10B0008E10B0008C0
:10007000E10B0008E10B0008E10B0008E10B0008B0
:10008000E10B0008E10B0008E10B00080000000094
:10009000000000000000000000000000E10B00086C
:1000A000E10B0008E10B0008E10B0008E10B000880
:1000B000E10B0008E10B0008E10B0008E10B000870
:1000C000E10B0008E10B0008E10B0008E10B000860
:1000D000E10B0008E10B0008E10B00080000000044
:1000E000E10B0008E10B0008E10B00080000000034
:1000F000000000000000000000000000E10B00080C
:1001000000000000E10B0008E10B0008E10B000813
:1001100000000000000000000000000000000000DF
:10012000E10B0008E10B0008E10B0008E10B0008FF
:10013000E10B0008000000000000000000000000CB
:10014000000000000000000000000000E10B0008BB
:10015000E10B0008E10B0008E10B0008E10B0008CF
:10016000E10B0008E10B00080000000000000000A7
:10017000000000000000000000000000000000007F
:1001800000000000E10B000800000000000000007B
:08019000E10B0008E10B00087F
:1001980010B5054C237833B9044B13B10448AFF3B9
:1001A80000800123237010BD100000200000000013
:1001B8002C0C000808B5034B1BB103490348AFF3E7
:1001C800008008BD00000000140000202C0C00086E
:1001D800034613F8012B002AFBD1181A013870477F
:1001E80010B504460E4B18784FF47A73B3FBF0F34E
:1001F8000C4A1068B0FBF3F000F094F868B90F2CC3
:1002080001D901200AE0002221464FF0FF3000F01A
:1002180049F8034B5C60002000E0012010BD00BFDE
:10022800000000200C00002008B50B4B1A6842F4AF
:1002380000721A601A6842F480621A601A6842F4FE
:1002480080721A60032000F01BF80020FFF7C8FF37
:1002580000F01CFC002008BD003C0240034A116865
:10026800034B1B780B441360704700BF2C00002021
:1002780000000020014B1868704700BF2C000020C8
:10028800074AD36823F4E0631B041B0C000200F444
:10029800E060184340F0BF6040F40030D060704721
:1002A80000ED00E030B4174BDB68C3F30223C3F161
:1002B8000704042C28BF04241D1D062D18D9033B50
:1002C8004FF0FF3505FA04F421EA0401994005FAD4
:1002D80003F322EA0303194300280BDB0901C9B21F
:1002E80000F1604000F5614080F8001330BC7047B1
:1002F8000023E5E700F00F000901C9B2024B1954C9
:10030800F4E700BF00ED00E014ED00E000F01F028C
:10031800400901239340024A42F82030704700BF49
:1003280000E100E00138B0F1807F0AD2064B586046
:10033800064AF02182F823100020986007221A60EC
:1003480070470120704700BF10E000E000ED00E0BA
:10035800704708B5FFF7FCFF08BD000000230F2B0E
:1003680000F2C580F0B482B039E0042200E0002237
:10037800B2403A4302345E4E46F824205D4A14687F
:10038800EA4302EA04064F6817F4803F01D045EAC1
:100398000406584C2660646802EA04064F6817F49D
:1003A800003F01D045EA0406524C6660A46802EAA0
:1003B80004064F6817F4801F01D045EA04064D4C27
:1003C800A660E46822404E6816F4001F01D045EA92
:1003D8000402484CE26001330F2B00F285800122B1
:1003E8009A400C6804EA0205AA42F4D14C68022C2F
:1003F80001D0122C10D1DE08083650F826C003F0C0
:100408000704A7000F24BC402CEA040C0C69BC406C
:1004180044EA0C0440F8264004685F000326BE4006
:10042800F64306EA040C4C6804F00304BC4044EAB2
:100438000C0404604C6804F1FF3CBCF1010F03D9C3
:10044800112C01D0122C10D1846806EA040CCC6857
:10045800BC4044EA0C048460446824EA02024C6804
:10046800C4F300149C4014434460C26816408A6870
:10047800BA403243C2604A6812F0805FABD00022B3
:1004880001921D4A546C44F480445464526C02F442
:1004980080420192019A9C08A61C154A52F82670BF
:1004A80003F0030296000F22B24027EA0207134A1C
:1004B80090423FF45CAF02F5806290420ED002F5A4
:1004C800806290420CD002F5806290420AD002F518
:1004D800806290423FF449AF072249E7012247E78B
:1004E800022245E7032243E702B0F0BC7047704799
:1004F80000380140003C0140003802400000024042
:10050800014B1868704700BF0C00002008B5FFF7C2
:10051800F7FF044B9B68C3F38223034AD35CD8409C
:1005280008BD00BF00380240540C000808B5FFF7AA
:10053800E7FF044B9B68C3F34233034AD35CD840BC
:1005480008BD00BF00380240540C00082DE9F843EC
:10055800044601680A6922F44052C36813430B61D8
:100568000168CA6822F4164222F00C028368006906
:10057800034360690343E06903431343CB60216885
:100588004A6922F44072A36913434B61E369B3F5E6
:10059800004F60D02368B84A934200F0148102F5F6
:1005A8008062934200F00F81FFF7B0FF00EB8000FC
:1005B80000EB80006568AD00B0FBF5F5AF4FA7FB19
:1005C80005356D092E01FFF7A1FF00EB800000EB58
:1005D80080006568AD00B0FBF5F9FFF797FF00EB09
:1005E800800000EB80006568AD00B0FBF5F5A7FB67
:1005F80005356D094FF0640808FB15952D01323556
:10060800A7FB05356D0905F0F0053544FFF77EFFBA
:1006180000EB800000EB80006668B600B0FBF6F6E1
:10062800FFF774FF00EB800000EB800063689B001D
:10063800B0FBF3F0A7FB0030400908FB10684FEA55
:10064800081808F13208A7FB0837C7F343172368CF
:100658002F449F600DE12368874A93425BD002F5DF
:100668008062934257D0FFF751FF00EB800000EB08
:10067800800065686D00B0FBF5F5804FA7FB053578
:100688006D092E01FFF742FF00EB800000EB8000B0
:1006980065686D00B0FBF5F9FFF738FF00EB8000E7
:1006A80000EB800065686D00B0FBF5F5A7FB05352C
:1006B8006D094FF0640808FB1595ED003235A7FB6E
:1006C80005356D096D0005F4F8753544FFF71EFF13
:1006D80000EB800000EB800066687600B0FBF6F661
:1006E800FFF714FF00EB800000EB800063685B00FD
:1006F800B0FBF3F3A7FB03235B0908FB13684FEA7E
:10070800C80808F13208A7FB0837C7F3421723685F
:100718002F449F60ADE0FFF709FF00EB800000EB7E
:10072800800065686D00B0FBF5F5544FA7FB0535F3
:100738006D092E01FFF7FAFE00EB800000EB800048
:1007480065686D00B0FBF5F9FFF7F0FE00EB80007F
:1007580000EB800065686D00B0FBF5F5A7FB05357B
:100768006D094FF0640808FB1595ED003235A7FBBD
:1007780005356D096D0005F4F8753544FFF7D6FEAB
:1007880000EB800000EB800066687600B0FBF6F6B0
:10079800FFF7CCFE00EB800000EB800063685B0095
:1007A800B0FBF3F3A7FB03235B0908FB13684FEACD
:1007B800C80808F13208A7FB0837C7F342172368AF
:1007C8002F449F6055E0FFF7B1FE00EB800000EB7F
:1007D80080006568AD00B0FBF5F5284FA7FB05352F
:1007E8006D092E01FFF7A2FE00EB800000EB8000F0
:1007F8006568AD00B0FBF5F9FFF798FE00EB8000E7
:1008080000EB80006568AD00B0FBF5F5A7FB05358A
:100818006D094FF0640808FB15952D013235A7FBCB
:1008280005356D0905F0F0053544FFF77FFE00EB4F
:10083800800000EB80006668B600B0FBF6F6FFF7B4
:1008480075FE00EB800000EB800063689B00B0FB46
:10085800F3F0A7FB0030400908FB10684FEA0818BE
:1008680008F13208A7FB0837C7F3431723682F445A
:100878009F60BDE8F88300BF001001401F85EB5161
:100888002DE9F04105460F4616469846069C2B680A
:100898001B6837EA03030CBF01230023B3421DD1B1
:1008A800B4F1FF3FF3D02CB1FFF7E4FCA0EB080054
:1008B800A042ECD92A68D36823F4D073D3602A689D
:1008C800536923F001035361202385F8393085F8F3
:1008D8003A30002385F83830032000E00020BDE8D6
:1008E800F08158B310B5044690F839300BB324237F
:1008F80084F839302268D36823F40053D360204643
:10090800FFF724FE2268136923F4904313612268D9
:10091800536923F02A0353612268D36843F40053D0
:10092800D3600020E063202384F8393084F83A301B
:1009380010BD80F8383000F0C7F8D8E701207047BC
:100948002DE9F04182B01E4690F83930DBB2202BF9
:1009580055D104460D469046002955D0002A55D059
:1009680090F83830012B53D0012380F83830002319
:10097800C363212380F83930FFF77CFC0746A4F8CD
:100988002480A4F8268010E000963B4600228021AF
:100998002046FFF775FF00283CD12B882268C3F357
:1009A800080353602369C3B90235E38C9BB2B3B122
:1009B800E38C013B9BB2E384A368B3F5805FE3D08B
:1009C80000963B46002280212046FFF759FF18BBBE
:1009D8002A7823685A600135E7E70135E5E700968C
:1009E8003B46002240212046FFF74AFF0346A8B9AC
:1009F800202284F83920002284F8382000E00223DD
:100A0800184602B0BDE8F0810123F9E70123F7E7B2
:100A18000223F5E70323F3E70323F1E70323EFE7D3
:100A280008B5FFF71BFCFFF794FC08BDFEE70000C4
:100A380008B50948094B03604FF4E13343600023CC
:100A48008360C36003610C2242618361FFF749FF41
:100A580000B908BDFFF7EAFF30000020004400405D
:100A680010B5FFF7E1FBFFF7E3FF064B1C682046D4
:100A7800FFF7AEFB4FF0FF3382B221460248FFF783
:100A88005FFFFEE7080000203000002008B50320C3
:100A9800FFF7F6FB0B4A536A43F4E0235362002244
:100AA80011466FF00B00FFF7FDFB002211466FF0B7
:100AB8000A00FFF7F7FB002211466FF00900FFF765
:100AC800F1FB08BD00ED00E030B589B000240194C9
:100AD800184B1A6C42F400321A641A6C02F4003291
:100AE8000192019A02941A6B42F001021A631B6B7D
:100AF80003F001030293029B04230393022304934C
:100B0800012305930694072307930B4D03A9284651
:100B1800FFF724FC0823039303A92846FFF71EFCCC
:100B28002620FFF7F3FB22460F212620FFF7BAFB0A
:100B380009B030BD00380240000002400F49D1F82A
:100B4800883043F47003C1F888300D4B1A6842F0BE
:100B580001021A60002098601A6822F0847222F458
:100B680080321A60074A5A601A6822F480221A6092
:100B7800D8604FF000638B60704700BF00ED00E065
:100B88000038024010300024DFF834D0002103E0A0
:100B98000C4B5B58435004310B480C4B42189A429B
:100BA800F6D30B4A02E0002342F8043B094B9A4271
:100BB800F9D3FFF7C3FF00F011F8FFF751FF7047B3
:100BC80000000220800C0008000000201000002017
:100BD8001000002070000020FEE7000070B50D4EE8
:100BE8000D4CA41BA4100025A54209D10B4E0C4C9A
:100BF80000F018F8A41BA4100025A54205D170BD6B
:100C080056F8253098470135EEE756F825309847CD
:100C18000135F2E7780C0008780C0008780C000819
:100C28007C0C0008F8B500BFF8BC08BC9E467047AD
:0C0C3800F8B500BFF8BC08BC9E46704731
:100C44000000000000000000010203040607080978
:100C54000000000001020304546865206170706C98
:100C640069636174696F6E206973207570210D0A60
:040C7400000000007C
:040C7800BD010008B2
:040C7C0099010008D2
:100C800001000000100000005C0C00080024F400CB
:0400000508000B9153
:00000001FF
