:020000040800F2
:1000000000000220B90700080908000809080008D4
:100010000908000809080008090800080000000095
:1000200000000000000000000000000009080008B7
:100030000908000800000000090800080908000875
:10004000090800080908000809080008090800084C
:10005000090800080908000809080008090800083C
:10006000090800080908000809080008090800082C
:10007000090800080908000809080008090800081C
:100080000908000809080008090800080000000025
:100090000000000000000000000000000908000847
:1000A00009080008090800080908000809080008EC
:1000B00009080008090800080908000809080008DC
:1000C00009080008090800080908000809080008CC
:1000D00009080008090800080908000800000000D5
:1000E00009080008090800080908000800000000C5
:1000F00000000000000000000000000009080008E7
:1001000000000000090800080908000809080008A4
:1001100000000000000000000000000000000000DF
:10012000090800080908000809080008090800086B
:1001300009080008000000000000000000000000A6
:100140000000000000000000000000000908000896
:10015000090800080908000809080008090800083B
:10016000090800080908000800000000000000005D
:10017000000000000000000000000000000000007F
:100180000000000009080008000000000000000056
:08019000090800080908000835
:1001980010B5054C237833B9044B13B10448AFF3B9
:1001A80000800123237010BD0C0000200000000017
:1001B8005408000808B5034B1BB103490348AFF3C3
:1001C800008008BD0000000010000020540800084E
:1001D80010B504460E4B18784FF47A73B3FBF0F35E
:1001E8000C4A1068B0FBF3F000F076F868B90F2CF1
:1001F80001D901200AE0002221464FF0FF3000F02B
:1002080037F8034B5C60002000E0012010BD00BF00
:10021800000000200800002008B50B4B1A6842F4C3
:1002280000721A601A6842F480621A601A6842F40E
:1002380080721A60032000F009F80020FFF7C8FF59
:1002480000F072FA002008BD003C0240074AD3685B
:1002580023F4E0631B041B0C000200F4E060184365
:1002680040F0BF6040F40030D060704700ED00E01F
:1002780030B4174BDB68C3F30223C3F10704042C23
:1002880028BF04241D1D062D18D9033B4FF0FF3548
:1002980005FA04F421EA0401994005FA03F322EA75
:1002A8000303194300280BDB0901C9B200F16040C0
:1002B80000F5614080F8001330BC70470023E5E783
:1002C80000F00F000901C9B2024B1954F4E700BF4E
:1002D80000ED00E014ED00E00138B0F1807F0AD2B3
:1002E800064B5860064AF02182F8231000209860D7
:1002F80007221A6070470120704700BF10E000E035
:1003080000ED00E0014B1868704700BF08000020AE
:1003180008B5FFF7F7FF044B9B68C3F38223034A32
:10032800D35CD84008BD00BF003802407C080008F4
:1003380008B5FFF7E7FF044B9B68C3F34233034A52
:10034800D35CD84008BD00BF003802407C080008D4
:100358002DE9F843044601680A6922F44052C3684B
:1003680013430B610168CA6822F4164222F00C029A
:1003780083680069034360690343E06903431343E7
:10038800CB6021684A6922F44072A36913434B6128
:10039800E369B3F5004F60D02368B84A934200F090
:1003A800148102F58062934200F00F81FFF7B0FFDD
:1003B80000EB800000EB80006568AD00B0FBF5F550
:1003C800AF4FA7FB05356D092E01FFF7A1FF00EB25
:1003D800800000EB80006568AD00B0FBF5F9FFF721
:1003E80097FF00EB800000EB80006568AD00B0FB74
:1003F800F5F5A7FB05356D094FF0640808FB159561
:100408002D013235A7FB05356D0905F0F00535449A
:10041800FFF77EFF00EB800000EB80006668B60007
:10042800B0FBF6F6FFF774FF00EB800000EB8000EE
:1004380063689B00B0FBF3F0A7FB0030400908FBA2
:1004480010684FEA081808F13208A7FB0837C7F305
:10045800431723682F449F600DE12368874A93421E
:100468005BD002F58062934257D0FFF751FF00EB53
:10047800800000EB800065686D00B0FBF5F5804FEB
:10048800A7FB05356D092E01FFF742FF00EB800041
:1004980000EB800065686D00B0FBF5F9FFF738FFE9
:1004A80000EB800000EB800065686D00B0FBF5F59F
:1004B800A7FB05356D094FF0640808FB1595ED009D
:1004C8003235A7FB05356D096D0005F4F87535441F
:1004D800FFF71EFF00EB800000EB800066687600E7
:1004E800B0FBF6F6FFF714FF00EB800000EB80008E
:1004F80063685B00B0FBF3F3A7FB03235B0908FB0E
:1005080013684FEAC80808F13208A7FB0837C7F391
:10051800421723682F449F60ADE0FFF709FF00EB07
:10052800800000EB800065686D00B0FBF5F5544F66
:10053800A7FB05356D092E01FFF7FAFE00EB8000D9
:1005480000EB800065686D00B0FBF5F9FFF7F0FE81
:1005580000EB800000EB800065686D00B0FBF5F5EE
:10056800A7FB05356D094FF0640808FB1595ED00EC
:100578003235A7FB05356D096D0005F4F87535446E
:10058800FFF7D6FE00EB800000EB8000666876007F
:10059800B0FBF6F6FFF7CCFE00EB800000EB800026
:1005A80063685B00B0FBF3F3A7FB03235B0908FB5D
:1005B80013684FEAC80808F13208A7FB0837C7F3E1
:1005C800421723682F449F6055E0FFF7B1FE00EB08
:1005D800800000EB80006568AD00B0FBF5F5284FA2
:1005E800A7FB05356D092E01FFF7A2FE00EB800081
:1005F80000EB80006568AD00B0FBF5F9FFF798FEE9
:1006080000EB800000EB80006568AD00B0FBF5F5FD
:10061800A7FB05356D094FF0640808FB15952D01FA
:100628003235A7FB05356D0905F0F0053544FFF7B0
:100638007FFE00EB800000EB80006668B600B0FB30
:10064800F6F6FFF775FE00EB800000EB80006368AC
:100658009B00B0FBF3F0A7FB0030400908FB1068D3
:100668004FEA081808F13208A7FB0837C7F3431701
:1006780023682F449F60BDE8F88300BF0010014045
:100688001F85EB51704758B310B5044690F83930C0
:100698000BB3242384F839302268D36823F4005339
:1006A800D3602046FFF754FE2268136923F4904371
:1006B80013612268536923F02A0353612268D368BF
:1006C80043F40053D3600020E063202384F83930DA
:1006D80084F83A3010BD80F83830FFF7D3FFD8E7F8
:1006E80001207047FEE7000008B50948094B036080
:1006F8004FF4E133436000238360C36003610C223D
:1007080042618361FFF7BFFF00B908BDFFF7EAFF49
:10071800280000200044004008B5FFF77DFDFFF7E2
:10072800E3FF002008BD000008B50320FFF78EFD99
:100738000B4A536A43F4E0235362002211466FF0D8
:100748000B00FFF795FD002211466FF00A00FFF736
:100758008FFD002211466FF00900FFF789FD08BDE3
:1007680000ED00E00F49D1F8883043F47003C1F878
:1007780088300D4B1A6842F001021A600020986018
:100788001A6822F0847222F480321A60074A5A608A
:100798001A6822F480221A60D8604FF000638B60D8
:1007A800704700BF00ED00E0003802401030002420
:1007B800DFF834D0002103E00C4B5B584350043180
:1007C8000B480C4B42189A42F6D30B4A02E000231E
:1007D80042F8043B094B9A42F9D3FFF7C3FF00F0F4
:1007E80011F8FFF799FF7047000002208C080008F5
:1007F800000000200C0000200C00002068000020F1
:10080800FEE7000070B50D4E0D4CA41BA41000258A
:10081800A54209D10B4E0C4C00F018F8A41BA410EB
:100828000025A54205D170BD56F8253098470135F9
:10083800EEE756F8253098470135F2E784080008B6
:10084800840800088408000888080008F8B500BF74
:10085800F8BC08BC9E467047F8B500BFF8BC08BC99
:040868009E467047F1
:10086C000000000000000000010203040607080954
:08087C0000000000010203046A
:04088400BD010008AA
:0408880099010008CA
:0C088C0001000000100000000024F40037
:04000005080007B92F
:00000001FF
